{"abi":[{"inputs":[{"internalType":"address","name":"tokenAddress","type":"address"}],"stateMutability":"nonpayable","type":"constructor","name":"constructor"},{"anonymous":false,"inputs":[{"indexed":true,"internalType":"address","name":"buyer","type":"address"},{"indexed":false,"internalType":"uint256","name":"kwh","type":"uint256"},{"indexed":false,"internalType":"uint256","name":"pricePerKwh","type":"uint256"},{"indexed":false,"internalType":"uint256","name":"totalCost","type":"uint256"}],"name":"EnergyPaid","type":"event"},{"anonymous":false,"inputs":[{"indexed":true,"internalType":"address","name":"user","type":"address"},{"indexed":false,"internalType":"uint256","name":"generated","type":"uint256"},{"indexed":false,"internalType":"uint256","name":"consumed","type":"uint256"}],"name":"EnergyReported","type":"event"},{"anonymous":false,"inputs":[{"indexed":true,"internalType":"address","name":"user","type":"address"}],"name":"EnergyReset","type":"event"},{"anonymous":false,"inputs":[{"indexed":true,"internalType":"address","name":"user","type":"address"},{"indexed":false,"internalType":"enum EnergyMarket.Role","name":"role","type":"uint8"}],"name":"HouseholdRegistered","type":"event"},{"inputs":[],"name":"admin","outputs":[{"internalType":"address","name":"","type":"address"}],"stateMutability":"view","type":"function"},{"inputs":[{"internalType":"uint256","name":"","type":"uint256"}],"name":"householdList","outputs":[{"internalType":"address","name":"","type":"address"}],"stateMutability":"view","type":"function"},{"inputs":[{"internalType":"address","name":"","type":"address"}],"name":"households","outputs":[{"internalType":"enum EnergyMarket.Role","name":"role","type":"uint8"},{"internalType":"uint256","name":"energyGenerated","type":"uint256"},{"internalType":"uint256","name":"energyConsumed","type":"uint256"},{"internalType":"bool","name":"exists","type":"bool"}],"stateMutability":"view","type":"function"},{"inputs":[{"internalType":"address","name":"buyer","type":"address"},{"internalType":"uint256","name":"kwh","type":"uint256"},{"internalType":"uint256","name":"pricePerKwh","type":"uint256"}],"name":"payEnergy","outputs":[],"stateMutability":"nonpayable","type":"function"},{"inputs":[{"internalType":"address","name":"user","type":"address"},{"internalType":"enum EnergyMarket.Role","name":"role","type":"uint8"}],"name":"registerHousehold","outputs":[],"stateMutability":"nonpayable","type":"function"},{"inputs":[{"internalType":"uint256","name":"generated","type":"uint256"},{"internalType":"uint256","name":"consumed","type":"uint256"}],"name":"reportEnergy","outputs":[],"stateMutability":"nonpayable","type":"function"},{"inputs":[],"name":"resetEnergy","outputs":[],"stateMutability":"nonpayable","type":"function"},{"inputs":[],"name":"token","outputs":[{"internalType":"contract Palm","name":"","type":"address"}],"stateMutability":"view","type":"function"}],"bytecode":"6080604052348015600f57600080fd5b50604051610bf1380380610bf1833981016040819052602c916059565b600080546001600160a01b039092166001600160a01b031992831617905560018054909116331790556087565b600060208284031215606a57600080fd5b81516001600160a01b0381168114608057600080fd5b9392505050565b610b5b806100966000396000f3fe608060405234801561001057600080fd5b50600436106100885760003560e01c8063ef7504d51161005b578063ef7504d514610112578063f851a4401461013d578063fc0c546a14610150578063fc667f2d1461016357600080fd5b80633319653c1461008d57806341ae21221461009757806386702f3d146100aa578063ba3af348146100ff575b600080fd5b610095610176565b005b6100956100a5366004610936565b610214565b6100e66100b8366004610971565b6002602081905260009182526040909120805460018201549282015460039092015460ff9182169392911684565b6040516100f694939291906109cb565b60405180910390f35b61009561010d3660046109f6565b6103fe565b610125610120366004610a18565b6104a4565b6040516001600160a01b0390911681526020016100f6565b600154610125906001600160a01b031681565b600054610125906001600160a01b031681565b610095610171366004610a31565b6104ce565b3360009081526002602052604090206003015460ff166101ce5760405162461bcd60e51b815260206004820152600e60248201526d139bdd081c9959da5cdd195c995960921b60448201526064015b60405180910390fd5b33600081815260026020819052604080832060018101849055909101829055517faca9daffb0fd7f973b6cfa07e7c7a08dbf21b273460af54785a654105da1ed3b9190a2565b6001546001600160a01b0316331461026e5760405162461bcd60e51b815260206004820152601760248201527f4f6e6c792061646d696e2063616e20726567697374657200000000000000000060448201526064016101c5565b6001600160a01b03821660009081526002602052604090206003015460ff16156102cf5760405162461bcd60e51b8152602060048201526012602482015271105b1c9958591e481c9959da5cdd195c995960721b60448201526064016101c5565b60405180608001604052808260028111156102ec576102ec610993565b8152600060208083018290526040808401839052600160609094018490526001600160a01b03871683526002918290529091208351815491939092849260ff19169190849081111561034057610340610993565b0217905550602082015160018281019190915560408084015160028401556060909301516003928301805460ff1916911515919091179055815490810182556000919091527fc2575a0e9e593c00f959f8c92f12db2869c3395a3b0502d05e2516446f71f85b0180546001600160a01b0319166001600160a01b03851690811790915590517f6a8dd0dafa084aad328c9a02fe3c2d48510c84376eca1d61dffe9c63fdde31d7906103f2908490610a64565b60405180910390a25050565b3360009081526002602052604090206003015460ff166104515760405162461bcd60e51b815260206004820152600e60248201526d139bdd081c9959da5cdd195c995960921b60448201526064016101c5565b336000818152600260208181526040928390206001810187905590910184905581518581529081018490527fda33a815d22f265daa35fb7d242eeaa7e5ffd23cce067e5ed9598b4c1b61bcf991016103f2565b600381815481106104b457600080fd5b6000918252602090912001546001600160a01b0316905081565b6001600160a01b03831660009081526002602052604090206003015460ff166105305760405162461bcd60e51b8152602060048201526014602482015273109d5e595c881b9bdd081c9959da5cdd195c995960621b60448201526064016101c5565b6001600160a01b038316600090815260026020819052604082205460ff169081111561055e5761055e610993565b148061059657506001600160a01b03831660009081526002602081905260409091205460ff168181111561059457610594610993565b145b6105d75760405162461bcd60e51b81526020600482015260126024820152714e6f7420616c6c6f77656420746f2062757960701b60448201526064016101c5565b6000805b60035481101561065f57600060026000600384815481106105fe576105fe610a78565b60009182526020808320909101546001600160a01b03168352820192909252604001902060028101546001820154919250101561065657806002015481600101546106499190610aa4565b6106539084610ab7565b92505b506001016105db565b50600081116106a75760405162461bcd60e51b81526020600482015260146024820152734e6f2073656c6c65727320617661696c61626c6560601b60448201526064016101c5565b60008184116106b657836106b8565b815b905060006106c68483610aca565b6000546040516323b872dd60e01b81526001600160a01b038981166004830152306024830152604482018490529293509116906323b872dd906064016020604051808303816000875af1158015610721573d6000803e3d6000fd5b505050506040513d601f19601f820116820180604052508101906107459190610ae1565b6107825760405162461bcd60e51b815260206004820152600e60248201526d14185e5b595b9d0819985a5b195960921b60448201526064016101c5565b60005b6003548110156108c557600060026000600384815481106107a8576107a8610a78565b60009182526020808320909101546001600160a01b0316835282019290925260400190206002810154600182015491925010156108bc576000816002015482600101546107f59190610aa4565b90506000866108048387610aca565b61080e9190610b03565b600054600380549293506001600160a01b039091169163a9059cbb91908790811061083b5761083b610a78565b60009182526020909120015460405160e083901b6001600160e01b03191681526001600160a01b039091166004820152602481018490526044016020604051808303816000875af1158015610894573d6000803e3d6000fd5b505050506040513d601f19601f820116820180604052508101906108b89190610ae1565b5050505b50600101610785565b5060408051838152602081018690529081018290526001600160a01b038716907f255c2ab819d5caba4d687c1d56d0a5a55313306b2e828c8b020db2447e77f04a9060600160405180910390a2505050505050565b80356001600160a01b038116811461093157600080fd5b919050565b6000806040838503121561094957600080fd5b6109528361091a565b915060208301356003811061096657600080fd5b809150509250929050565b60006020828403121561098357600080fd5b61098c8261091a565b9392505050565b634e487b7160e01b600052602160045260246000fd5b600381106109c757634e487b7160e01b600052602160045260246000fd5b9052565b608081016109d982876109a9565b846020830152836040830152821515606083015295945050505050565b60008060408385031215610a0957600080fd5b50508035926020909101359150565b600060208284031215610a2a57600080fd5b5035919050565b600080600060608486031215610a4657600080fd5b610a4f8461091a565b95602085013595506040909401359392505050565b60208101610a7282846109a9565b92915050565b634e487b7160e01b600052603260045260246000fd5b634e487b7160e01b600052601160045260246000fd5b81810381811115610a7257610a72610a8e565b80820180821115610a7257610a72610a8e565b8082028115828204841417610a7257610a72610a8e565b600060208284031215610af357600080fd5b8151801515811461098c57600080fd5b600082610b2057634e487b7160e01b600052601260045260246000fd5b50049056fea2646970667358221220a4d389183cc4fb69c13eace0f92e776f38b628782741fbc2858122cbe13192f264736f6c634300081e0033","bytecodeSha1":"6a4570d19868a680f94cc35f5a76b1830ec1c1bf","compiler":{"evm_version":"istanbul","optimizer":{"enabled":true,"runs":200},"version":"0.8.30+commit.73712a01"},"contractName":"EnergyMarket","language":"Solidity","natspec":{"kind":"dev","methods":{},"version":1},"opcodes":"PUSH1 0x80 PUSH1 0x40 MSTORE CALLVALUE DUP1 ISZERO PUSH2 0x10 JUMPI PUSH1 0x0 DUP1 REVERT JUMPDEST POP PUSH1 0x4 CALLDATASIZE LT PUSH2 0x88 JUMPI PUSH1 0x0 CALLDATALOAD PUSH1 0xE0 SHR DUP1 PUSH4 0xEF7504D5 GT PUSH2 0x5B JUMPI DUP1 PUSH4 0xEF7504D5 EQ PUSH2 0x112 JUMPI DUP1 PUSH4 0xF851A440 EQ PUSH2 0x13D JUMPI DUP1 PUSH4 0xFC0C546A EQ PUSH2 0x150 JUMPI DUP1 PUSH4 0xFC667F2D EQ PUSH2 0x163 JUMPI PUSH1 0x0 DUP1 REVERT JUMPDEST DUP1 PUSH4 0x3319653C EQ PUSH2 0x8D JUMPI DUP1 PUSH4 0x41AE2122 EQ PUSH2 0x97 JUMPI DUP1 PUSH4 0x86702F3D EQ PUSH2 0xAA JUMPI DUP1 PUSH4 0xBA3AF348 EQ PUSH2 0xFF JUMPI JUMPDEST PUSH1 0x0 DUP1 REVERT JUMPDEST PUSH2 0x95 PUSH2 0x176 JUMP JUMPDEST STOP JUMPDEST PUSH2 0x95 PUSH2 0xA5 CALLDATASIZE PUSH1 0x4 PUSH2 0x936 JUMP JUMPDEST PUSH2 0x214 JUMP JUMPDEST PUSH2 0xE6 PUSH2 0xB8 CALLDATASIZE PUSH1 0x4 PUSH2 0x971 JUMP JUMPDEST PUSH1 0x2 PUSH1 0x20 DUP2 SWAP1 MSTORE PUSH1 0x0 SWAP2 DUP3 MSTORE PUSH1 0x40 SWAP1 SWAP2 KECCAK256 DUP1 SLOAD PUSH1 0x1 DUP3 ADD SLOAD SWAP3 DUP3 ADD SLOAD PUSH1 0x3 SWAP1 SWAP3 ADD SLOAD PUSH1 0xFF SWAP2 DUP3 AND SWAP4 SWAP3 SWAP2 AND DUP5 JUMP JUMPDEST PUSH1 0x40 MLOAD PUSH2 0xF6 SWAP5 SWAP4 SWAP3 SWAP2 SWAP1 PUSH2 0x9CB JUMP JUMPDEST PUSH1 0x40 MLOAD DUP1 SWAP2 SUB SWAP1 RETURN JUMPDEST PUSH2 0x95 PUSH2 0x10D CALLDATASIZE PUSH1 0x4 PUSH2 0x9F6 JUMP JUMPDEST PUSH2 0x3FE JUMP JUMPDEST PUSH2 0x125 PUSH2 0x120 CALLDATASIZE PUSH1 0x4 PUSH2 0xA18 JUMP JUMPDEST PUSH2 0x4A4 JUMP JUMPDEST PUSH1 0x40 MLOAD PUSH1 0x1 PUSH1 0x1 PUSH1 0xA0 SHL SUB SWAP1 SWAP2 AND DUP2 MSTORE PUSH1 0x20 ADD PUSH2 0xF6 JUMP JUMPDEST PUSH1 0x1 SLOAD PUSH2 0x125 SWAP1 PUSH1 0x1 PUSH1 0x1 PUSH1 0xA0 SHL SUB AND DUP2 JUMP JUMPDEST PUSH1 0x0 SLOAD PUSH2 0x125 SWAP1 PUSH1 0x1 PUSH1 0x1 PUSH1 0xA0 SHL SUB AND DUP2 JUMP JUMPDEST PUSH2 0x95 PUSH2 0x171 CALLDATASIZE PUSH1 0x4 PUSH2 0xA31 JUMP JUMPDEST PUSH2 0x4CE JUMP JUMPDEST CALLER PUSH1 0x0 SWAP1 DUP2 MSTORE PUSH1 0x2 PUSH1 0x20 MSTORE PUSH1 0x40 SWAP1 KECCAK256 PUSH1 0x3 ADD SLOAD PUSH1 0xFF AND PUSH2 0x1CE JUMPI PUSH1 0x40 MLOAD PUSH3 0x461BCD PUSH1 0xE5 SHL DUP2 MSTORE PUSH1 0x20 PUSH1 0x4 DUP3 ADD MSTORE PUSH1 0xE PUSH1 0x24 DUP3 ADD MSTORE PUSH14 0x139BDD081C9959DA5CDD195C9959 PUSH1 0x92 SHL PUSH1 0x44 DUP3 ADD MSTORE PUSH1 0x64 ADD JUMPDEST PUSH1 0x40 MLOAD DUP1 SWAP2 SUB SWAP1 REVERT JUMPDEST CALLER PUSH1 0x0 DUP2 DUP2 MSTORE PUSH1 0x2 PUSH1 0x20 DUP2 SWAP1 MSTORE PUSH1 0x40 DUP1 DUP4 KECCAK256 PUSH1 0x1 DUP2 ADD DUP5 SWAP1 SSTORE SWAP1 SWAP2 ADD DUP3 SWAP1 SSTORE MLOAD PUSH32 0xACA9DAFFB0FD7F973B6CFA07E7C7A08DBF21B273460AF54785A654105DA1ED3B SWAP2 SWAP1 LOG2 JUMP JUMPDEST PUSH1 0x1 SLOAD PUSH1 0x1 PUSH1 0x1 PUSH1 0xA0 SHL SUB AND CALLER EQ PUSH2 0x26E JUMPI PUSH1 0x40 MLOAD PUSH3 0x461BCD PUSH1 0xE5 SHL DUP2 MSTORE PUSH1 0x20 PUSH1 0x4 DUP3 ADD MSTORE PUSH1 0x17 PUSH1 0x24 DUP3 ADD MSTORE PUSH32 0x4F6E6C792061646D696E2063616E207265676973746572000000000000000000 PUSH1 0x44 DUP3 ADD MSTORE PUSH1 0x64 ADD PUSH2 0x1C5 JUMP JUMPDEST PUSH1 0x1 PUSH1 0x1 PUSH1 0xA0 SHL SUB DUP3 AND PUSH1 0x0 SWAP1 DUP2 MSTORE PUSH1 0x2 PUSH1 0x20 MSTORE PUSH1 0x40 SWAP1 KECCAK256 PUSH1 0x3 ADD SLOAD PUSH1 0xFF AND ISZERO PUSH2 0x2CF JUMPI PUSH1 0x40 MLOAD PUSH3 0x461BCD PUSH1 0xE5 SHL DUP2 MSTORE PUSH1 0x20 PUSH1 0x4 DUP3 ADD MSTORE PUSH1 0x12 PUSH1 0x24 DUP3 ADD MSTORE PUSH18 0x105B1C9958591E481C9959DA5CDD195C9959 PUSH1 0x72 SHL PUSH1 0x44 DUP3 ADD MSTORE PUSH1 0x64 ADD PUSH2 0x1C5 JUMP JUMPDEST PUSH1 0x40 MLOAD DUP1 PUSH1 0x80 ADD PUSH1 0x40 MSTORE DUP1 DUP3 PUSH1 0x2 DUP2 GT ISZERO PUSH2 0x2EC JUMPI PUSH2 0x2EC PUSH2 0x993 JUMP JUMPDEST DUP2 MSTORE PUSH1 0x0 PUSH1 0x20 DUP1 DUP4 ADD DUP3 SWAP1 MSTORE PUSH1 0x40 DUP1 DUP5 ADD DUP4 SWAP1 MSTORE PUSH1 0x1 PUSH1 0x60 SWAP1 SWAP5 ADD DUP5 SWAP1 MSTORE PUSH1 0x1 PUSH1 0x1 PUSH1 0xA0 SHL SUB DUP8 AND DUP4 MSTORE PUSH1 0x2 SWAP2 DUP3 SWAP1 MSTORE SWAP1 SWAP2 KECCAK256 DUP4 MLOAD DUP2 SLOAD SWAP2 SWAP4 SWAP1 SWAP3 DUP5 SWAP3 PUSH1 0xFF NOT AND SWAP2 SWAP1 DUP5 SWAP1 DUP2 GT ISZERO PUSH2 0x340 JUMPI PUSH2 0x340 PUSH2 0x993 JUMP JUMPDEST MUL OR SWAP1 SSTORE POP PUSH1 0x20 DUP3 ADD MLOAD PUSH1 0x1 DUP3 DUP2 ADD SWAP2 SWAP1 SWAP2 SSTORE PUSH1 0x40 DUP1 DUP5 ADD MLOAD PUSH1 0x2 DUP5 ADD SSTORE PUSH1 0x60 SWAP1 SWAP4 ADD MLOAD PUSH1 0x3 SWAP3 DUP4 ADD DUP1 SLOAD PUSH1 0xFF NOT AND SWAP2 ISZERO ISZERO SWAP2 SWAP1 SWAP2 OR SWAP1 SSTORE DUP2 SLOAD SWAP1 DUP2 ADD DUP3 SSTORE PUSH1 0x0 SWAP2 SWAP1 SWAP2 MSTORE PUSH32 0xC2575A0E9E593C00F959F8C92F12DB2869C3395A3B0502D05E2516446F71F85B ADD DUP1 SLOAD PUSH1 0x1 PUSH1 0x1 PUSH1 0xA0 SHL SUB NOT AND PUSH1 0x1 PUSH1 0x1 PUSH1 0xA0 SHL SUB DUP6 AND SWAP1 DUP2 OR SWAP1 SWAP2 SSTORE SWAP1 MLOAD PUSH32 0x6A8DD0DAFA084AAD328C9A02FE3C2D48510C84376ECA1D61DFFE9C63FDDE31D7 SWAP1 PUSH2 0x3F2 SWAP1 DUP5 SWAP1 PUSH2 0xA64 JUMP JUMPDEST PUSH1 0x40 MLOAD DUP1 SWAP2 SUB SWAP1 LOG2 POP POP JUMP JUMPDEST CALLER PUSH1 0x0 SWAP1 DUP2 MSTORE PUSH1 0x2 PUSH1 0x20 MSTORE PUSH1 0x40 SWAP1 KECCAK256 PUSH1 0x3 ADD SLOAD PUSH1 0xFF AND PUSH2 0x451 JUMPI PUSH1 0x40 MLOAD PUSH3 0x461BCD PUSH1 0xE5 SHL DUP2 MSTORE PUSH1 0x20 PUSH1 0x4 DUP3 ADD MSTORE PUSH1 0xE PUSH1 0x24 DUP3 ADD MSTORE PUSH14 0x139BDD081C9959DA5CDD195C9959 PUSH1 0x92 SHL PUSH1 0x44 DUP3 ADD MSTORE PUSH1 0x64 ADD PUSH2 0x1C5 JUMP JUMPDEST CALLER PUSH1 0x0 DUP2 DUP2 MSTORE PUSH1 0x2 PUSH1 0x20 DUP2 DUP2 MSTORE PUSH1 0x40 SWAP3 DUP4 SWAP1 KECCAK256 PUSH1 0x1 DUP2 ADD DUP8 SWAP1 SSTORE SWAP1 SWAP2 ADD DUP5 SWAP1 SSTORE DUP2 MLOAD DUP6 DUP2 MSTORE SWAP1 DUP2 ADD DUP5 SWAP1 MSTORE PUSH32 0xDA33A815D22F265DAA35FB7D242EEAA7E5FFD23CCE067E5ED9598B4C1B61BCF9 SWAP2 ADD PUSH2 0x3F2 JUMP JUMPDEST PUSH1 0x3 DUP2 DUP2 SLOAD DUP2 LT PUSH2 0x4B4 JUMPI PUSH1 0x0 DUP1 REVERT JUMPDEST PUSH1 0x0 SWAP2 DUP3 MSTORE PUSH1 0x20 SWAP1 SWAP2 KECCAK256 ADD SLOAD PUSH1 0x1 PUSH1 0x1 PUSH1 0xA0 SHL SUB AND SWAP1 POP DUP2 JUMP JUMPDEST PUSH1 0x1 PUSH1 0x1 PUSH1 0xA0 SHL SUB DUP4 AND PUSH1 0x0 SWAP1 DUP2 MSTORE PUSH1 0x2 PUSH1 0x20 MSTORE PUSH1 0x40 SWAP1 KECCAK256 PUSH1 0x3 ADD SLOAD PUSH1 0xFF AND PUSH2 0x530 JUMPI PUSH1 0x40 MLOAD PUSH3 0x461BCD PUSH1 0xE5 SHL DUP2 MSTORE PUSH1 0x20 PUSH1 0x4 DUP3 ADD MSTORE PUSH1 0x14 PUSH1 0x24 DUP3 ADD MSTORE PUSH20 0x109D5E595C881B9BDD081C9959DA5CDD195C9959 PUSH1 0x62 SHL PUSH1 0x44 DUP3 ADD MSTORE PUSH1 0x64 ADD PUSH2 0x1C5 JUMP JUMPDEST PUSH1 0x1 PUSH1 0x1 PUSH1 0xA0 SHL SUB DUP4 AND PUSH1 0x0 SWAP1 DUP2 MSTORE PUSH1 0x2 PUSH1 0x20 DUP2 SWAP1 MSTORE PUSH1 0x40 DUP3 KECCAK256 SLOAD PUSH1 0xFF AND SWAP1 DUP2 GT ISZERO PUSH2 0x55E JUMPI PUSH2 0x55E PUSH2 0x993 JUMP JUMPDEST EQ DUP1 PUSH2 0x596 JUMPI POP PUSH1 0x1 PUSH1 0x1 PUSH1 0xA0 SHL SUB DUP4 AND PUSH1 0x0 SWAP1 DUP2 MSTORE PUSH1 0x2 PUSH1 0x20 DUP2 SWAP1 MSTORE PUSH1 0x40 SWAP1 SWAP2 KECCAK256 SLOAD PUSH1 0xFF AND DUP2 DUP2 GT ISZERO PUSH2 0x594 JUMPI PUSH2 0x594 PUSH2 0x993 JUMP JUMPDEST EQ JUMPDEST PUSH2 0x5D7 JUMPI PUSH1 0x40 MLOAD PUSH3 0x461BCD PUSH1 0xE5 SHL DUP2 MSTORE PUSH1 0x20 PUSH1 0x4 DUP3 ADD MSTORE PUSH1 0x12 PUSH1 0x24 DUP3 ADD MSTORE PUSH18 0x4E6F7420616C6C6F77656420746F20627579 PUSH1 0x70 SHL PUSH1 0x44 DUP3 ADD MSTORE PUSH1 0x64 ADD PUSH2 0x1C5 JUMP JUMPDEST PUSH1 0x0 DUP1 JUMPDEST PUSH1 0x3 SLOAD DUP2 LT ISZERO PUSH2 0x65F JUMPI PUSH1 0x0 PUSH1 0x2 PUSH1 0x0 PUSH1 0x3 DUP5 DUP2 SLOAD DUP2 LT PUSH2 0x5FE JUMPI PUSH2 0x5FE PUSH2 0xA78 JUMP JUMPDEST PUSH1 0x0 SWAP2 DUP3 MSTORE PUSH1 0x20 DUP1 DUP4 KECCAK256 SWAP1 SWAP2 ADD SLOAD PUSH1 0x1 PUSH1 0x1 PUSH1 0xA0 SHL SUB AND DUP4 MSTORE DUP3 ADD SWAP3 SWAP1 SWAP3 MSTORE PUSH1 0x40 ADD SWAP1 KECCAK256 PUSH1 0x2 DUP2 ADD SLOAD PUSH1 0x1 DUP3 ADD SLOAD SWAP2 SWAP3 POP LT ISZERO PUSH2 0x656 JUMPI DUP1 PUSH1 0x2 ADD SLOAD DUP2 PUSH1 0x1 ADD SLOAD PUSH2 0x649 SWAP2 SWAP1 PUSH2 0xAA4 JUMP JUMPDEST PUSH2 0x653 SWAP1 DUP5 PUSH2 0xAB7 JUMP JUMPDEST SWAP3 POP JUMPDEST POP PUSH1 0x1 ADD PUSH2 0x5DB JUMP JUMPDEST POP PUSH1 0x0 DUP2 GT PUSH2 0x6A7 JUMPI PUSH1 0x40 MLOAD PUSH3 0x461BCD PUSH1 0xE5 SHL DUP2 MSTORE PUSH1 0x20 PUSH1 0x4 DUP3 ADD MSTORE PUSH1 0x14 PUSH1 0x24 DUP3 ADD MSTORE PUSH20 0x4E6F2073656C6C65727320617661696C61626C65 PUSH1 0x60 SHL PUSH1 0x44 DUP3 ADD MSTORE PUSH1 0x64 ADD PUSH2 0x1C5 JUMP JUMPDEST PUSH1 0x0 DUP2 DUP5 GT PUSH2 0x6B6 JUMPI DUP4 PUSH2 0x6B8 JUMP JUMPDEST DUP2 JUMPDEST SWAP1 POP PUSH1 0x0 PUSH2 0x6C6 DUP5 DUP4 PUSH2 0xACA JUMP JUMPDEST PUSH1 0x0 SLOAD PUSH1 0x40 MLOAD PUSH4 0x23B872DD PUSH1 0xE0 SHL DUP2 MSTORE PUSH1 0x1 PUSH1 0x1 PUSH1 0xA0 SHL SUB DUP10 DUP2 AND PUSH1 0x4 DUP4 ADD MSTORE ADDRESS PUSH1 0x24 DUP4 ADD MSTORE PUSH1 0x44 DUP3 ADD DUP5 SWAP1 MSTORE SWAP3 SWAP4 POP SWAP2 AND SWAP1 PUSH4 0x23B872DD SWAP1 PUSH1 0x64 ADD PUSH1 0x20 PUSH1 0x40 MLOAD DUP1 DUP4 SUB DUP2 PUSH1 0x0 DUP8 GAS CALL ISZERO DUP1 ISZERO PUSH2 0x721 JUMPI RETURNDATASIZE PUSH1 0x0 DUP1 RETURNDATACOPY RETURNDATASIZE PUSH1 0x0 REVERT JUMPDEST POP POP POP POP PUSH1 0x40 MLOAD RETURNDATASIZE PUSH1 0x1F NOT PUSH1 0x1F DUP3 ADD AND DUP3 ADD DUP1 PUSH1 0x40 MSTORE POP DUP2 ADD SWAP1 PUSH2 0x745 SWAP2 SWAP1 PUSH2 0xAE1 JUMP JUMPDEST PUSH2 0x782 JUMPI PUSH1 0x40 MLOAD PUSH3 0x461BCD PUSH1 0xE5 SHL DUP2 MSTORE PUSH1 0x20 PUSH1 0x4 DUP3 ADD MSTORE PUSH1 0xE PUSH1 0x24 DUP3 ADD MSTORE PUSH14 0x14185E5B595B9D0819985A5B1959 PUSH1 0x92 SHL PUSH1 0x44 DUP3 ADD MSTORE PUSH1 0x64 ADD PUSH2 0x1C5 JUMP JUMPDEST PUSH1 0x0 JUMPDEST PUSH1 0x3 SLOAD DUP2 LT ISZERO PUSH2 0x8C5 JUMPI PUSH1 0x0 PUSH1 0x2 PUSH1 0x0 PUSH1 0x3 DUP5 DUP2 SLOAD DUP2 LT PUSH2 0x7A8 JUMPI PUSH2 0x7A8 PUSH2 0xA78 JUMP JUMPDEST PUSH1 0x0 SWAP2 DUP3 MSTORE PUSH1 0x20 DUP1 DUP4 KECCAK256 SWAP1 SWAP2 ADD SLOAD PUSH1 0x1 PUSH1 0x1 PUSH1 0xA0 SHL SUB AND DUP4 MSTORE DUP3 ADD SWAP3 SWAP1 SWAP3 MSTORE PUSH1 0x40 ADD SWAP1 KECCAK256 PUSH1 0x2 DUP2 ADD SLOAD PUSH1 0x1 DUP3 ADD SLOAD SWAP2 SWAP3 POP LT ISZERO PUSH2 0x8BC JUMPI PUSH1 0x0 DUP2 PUSH1 0x2 ADD SLOAD DUP3 PUSH1 0x1 ADD SLOAD PUSH2 0x7F5 SWAP2 SWAP1 PUSH2 0xAA4 JUMP JUMPDEST SWAP1 POP PUSH1 0x0 DUP7 PUSH2 0x804 DUP4 DUP8 PUSH2 0xACA JUMP JUMPDEST PUSH2 0x80E SWAP2 SWAP1 PUSH2 0xB03 JUMP JUMPDEST PUSH1 0x0 SLOAD PUSH1 0x3 DUP1 SLOAD SWAP3 SWAP4 POP PUSH1 0x1 PUSH1 0x1 PUSH1 0xA0 SHL SUB SWAP1 SWAP2 AND SWAP2 PUSH4 0xA9059CBB SWAP2 SWAP1 DUP8 SWAP1 DUP2 LT PUSH2 0x83B JUMPI PUSH2 0x83B PUSH2 0xA78 JUMP JUMPDEST PUSH1 0x0 SWAP2 DUP3 MSTORE PUSH1 0x20 SWAP1 SWAP2 KECCAK256 ADD SLOAD PUSH1 0x40 MLOAD PUSH1 0xE0 DUP4 SWAP1 SHL PUSH1 0x1 PUSH1 0x1 PUSH1 0xE0 SHL SUB NOT AND DUP2 MSTORE PUSH1 0x1 PUSH1 0x1 PUSH1 0xA0 SHL SUB SWAP1 SWAP2 AND PUSH1 0x4 DUP3 ADD MSTORE PUSH1 0x24 DUP2 ADD DUP5 SWAP1 MSTORE PUSH1 0x44 ADD PUSH1 0x20 PUSH1 0x40 MLOAD DUP1 DUP4 SUB DUP2 PUSH1 0x0 DUP8 GAS CALL ISZERO DUP1 ISZERO PUSH2 0x894 JUMPI RETURNDATASIZE PUSH1 0x0 DUP1 RETURNDATACOPY RETURNDATASIZE PUSH1 0x0 REVERT JUMPDEST POP POP POP POP PUSH1 0x40 MLOAD RETURNDATASIZE PUSH1 0x1F NOT PUSH1 0x1F DUP3 ADD AND DUP3 ADD DUP1 PUSH1 0x40 MSTORE POP DUP2 ADD SWAP1 PUSH2 0x8B8 SWAP2 SWAP1 PUSH2 0xAE1 JUMP JUMPDEST POP POP POP JUMPDEST POP PUSH1 0x1 ADD PUSH2 0x785 JUMP JUMPDEST POP PUSH1 0x40 DUP1 MLOAD DUP4 DUP2 MSTORE PUSH1 0x20 DUP2 ADD DUP7 SWAP1 MSTORE SWAP1 DUP2 ADD DUP3 SWAP1 MSTORE PUSH1 0x1 PUSH1 0x1 PUSH1 0xA0 SHL SUB DUP8 AND SWAP1 PUSH32 0x255C2AB819D5CABA4D687C1D56D0A5A55313306B2E828C8B020DB2447E77F04A SWAP1 PUSH1 0x60 ADD PUSH1 0x40 MLOAD DUP1 SWAP2 SUB SWAP1 LOG2 POP POP POP POP POP POP JUMP JUMPDEST DUP1 CALLDATALOAD PUSH1 0x1 PUSH1 0x1 PUSH1 0xA0 SHL SUB DUP2 AND DUP2 EQ PUSH2 0x931 JUMPI PUSH1 0x0 DUP1 REVERT JUMPDEST SWAP2 SWAP1 POP JUMP JUMPDEST PUSH1 0x0 DUP1 PUSH1 0x40 DUP4 DUP6 SUB SLT ISZERO PUSH2 0x949 JUMPI PUSH1 0x0 DUP1 REVERT JUMPDEST PUSH2 0x952 DUP4 PUSH2 0x91A JUMP JUMPDEST SWAP2 POP PUSH1 0x20 DUP4 ADD CALLDATALOAD PUSH1 0x3 DUP2 LT PUSH2 0x966 JUMPI PUSH1 0x0 DUP1 REVERT JUMPDEST DUP1 SWAP2 POP POP SWAP3 POP SWAP3 SWAP1 POP JUMP JUMPDEST PUSH1 0x0 PUSH1 0x20 DUP3 DUP5 SUB SLT ISZERO PUSH2 0x983 JUMPI PUSH1 0x0 DUP1 REVERT JUMPDEST PUSH2 0x98C DUP3 PUSH2 0x91A JUMP JUMPDEST SWAP4 SWAP3 POP POP POP JUMP JUMPDEST PUSH4 0x4E487B71 PUSH1 0xE0 SHL PUSH1 0x0 MSTORE PUSH1 0x21 PUSH1 0x4 MSTORE PUSH1 0x24 PUSH1 0x0 REVERT JUMPDEST PUSH1 0x3 DUP2 LT PUSH2 0x9C7 JUMPI PUSH4 0x4E487B71 PUSH1 0xE0 SHL PUSH1 0x0 MSTORE PUSH1 0x21 PUSH1 0x4 MSTORE PUSH1 0x24 PUSH1 0x0 REVERT JUMPDEST SWAP1 MSTORE JUMP JUMPDEST PUSH1 0x80 DUP2 ADD PUSH2 0x9D9 DUP3 DUP8 PUSH2 0x9A9 JUMP JUMPDEST DUP5 PUSH1 0x20 DUP4 ADD MSTORE DUP4 PUSH1 0x40 DUP4 ADD MSTORE DUP3 ISZERO ISZERO PUSH1 0x60 DUP4 ADD MSTORE SWAP6 SWAP5 POP POP POP POP POP JUMP JUMPDEST PUSH1 0x0 DUP1 PUSH1 0x40 DUP4 DUP6 SUB SLT ISZERO PUSH2 0xA09 JUMPI PUSH1 0x0 DUP1 REVERT JUMPDEST POP POP DUP1 CALLDATALOAD SWAP3 PUSH1 0x20 SWAP1 SWAP2 ADD CALLDATALOAD SWAP2 POP JUMP JUMPDEST PUSH1 0x0 PUSH1 0x20 DUP3 DUP5 SUB SLT ISZERO PUSH2 0xA2A JUMPI PUSH1 0x0 DUP1 REVERT JUMPDEST POP CALLDATALOAD SWAP2 SWAP1 POP JUMP JUMPDEST PUSH1 0x0 DUP1 PUSH1 0x0 PUSH1 0x60 DUP5 DUP7 SUB SLT ISZERO PUSH2 0xA46 JUMPI PUSH1 0x0 DUP1 REVERT JUMPDEST PUSH2 0xA4F DUP5 PUSH2 0x91A JUMP JUMPDEST SWAP6 PUSH1 0x20 DUP6 ADD CALLDATALOAD SWAP6 POP PUSH1 0x40 SWAP1 SWAP5 ADD CALLDATALOAD SWAP4 SWAP3 POP POP POP JUMP JUMPDEST PUSH1 0x20 DUP2 ADD PUSH2 0xA72 DUP3 DUP5 PUSH2 0x9A9 JUMP JUMPDEST SWAP3 SWAP2 POP POP JUMP JUMPDEST PUSH4 0x4E487B71 PUSH1 0xE0 SHL PUSH1 0x0 MSTORE PUSH1 0x32 PUSH1 0x4 MSTORE PUSH1 0x24 PUSH1 0x0 REVERT JUMPDEST PUSH4 0x4E487B71 PUSH1 0xE0 SHL PUSH1 0x0 MSTORE PUSH1 0x11 PUSH1 0x4 MSTORE PUSH1 0x24 PUSH1 0x0 REVERT JUMPDEST DUP2 DUP2 SUB DUP2 DUP2 GT ISZERO PUSH2 0xA72 JUMPI PUSH2 0xA72 PUSH2 0xA8E JUMP JUMPDEST DUP1 DUP3 ADD DUP1 DUP3 GT ISZERO PUSH2 0xA72 JUMPI PUSH2 0xA72 PUSH2 0xA8E JUMP JUMPDEST DUP1 DUP3 MUL DUP2 ISZERO DUP3 DUP3 DIV DUP5 EQ OR PUSH2 0xA72 JUMPI PUSH2 0xA72 PUSH2 0xA8E JUMP JUMPDEST PUSH1 0x0 PUSH1 0x20 DUP3 DUP5 SUB SLT ISZERO PUSH2 0xAF3 JUMPI PUSH1 0x0 DUP1 REVERT JUMPDEST DUP2 MLOAD DUP1 ISZERO ISZERO DUP2 EQ PUSH2 0x98C JUMPI PUSH1 0x0 DUP1 REVERT JUMPDEST PUSH1 0x0 DUP3 PUSH2 0xB20 JUMPI PUSH4 0x4E487B71 PUSH1 0xE0 SHL PUSH1 0x0 MSTORE PUSH1 0x12 PUSH1 0x4 MSTORE PUSH1 0x24 PUSH1 0x0 REVERT JUMPDEST POP DIV SWAP1 JUMP INVALID LOG2 PUSH5 0x6970667358 0x22 SLT KECCAK256 LOG4 0xD3 DUP10 XOR EXTCODECOPY 0xC4 EXTSTATICCALL PUSH10 0xC13EACE0F92E776F38B6 0x28 PUSH25 0x2741FBC2858122CBE13192F264736F6C634300081E00330000 ","sha1":"07bcfa719bf4426b69b0dc861b632cf870a25f49","source":"// SPDX-License-Identifier: MIT\npragma solidity ^0.8.24;\n\ncontract Palm {\n    string public name = \"Palm Token\";\n    string public symbol = \"PALM\";\n    uint8 public decimals = 18;\n    uint256 public totalSupply;\n\n    mapping(address => uint256) public balanceOf;\n    mapping(address => mapping(address => uint256)) public allowance;\n\n    event Transfer(address indexed from, address indexed to, uint256 value);\n    event Approval(address indexed owner, address indexed spender, uint256 value);\n\n    constructor(uint256 initialSupply) {\n        totalSupply = initialSupply * 10 ** uint256(decimals);\n        balanceOf[msg.sender] = totalSupply;\n    }\n\n    function transfer(address to, uint256 value) public returns (bool) {\n        require(balanceOf[msg.sender] >= value, \"Not enough balance\");\n        balanceOf[msg.sender] -= value;\n        balanceOf[to] += value;\n        emit Transfer(msg.sender, to, value);\n        return true;\n    }\n\n    function approve(address spender, uint256 value) public returns (bool) {\n        allowance[msg.sender][spender] = value;\n        emit Approval(msg.sender, spender, value);\n        return true;\n    }\n\n    function transferFrom(address from, address to, uint256 value) public returns (bool) {\n        require(balanceOf[from] >= value, \"Not enough balance\");\n        require(allowance[from][msg.sender] >= value, \"Not approved\");\n\n        balanceOf[from] -= value;\n        allowance[from][msg.sender] -= value;\n        balanceOf[to] += value;\n\n        emit Transfer(from, to, value);\n        return true;\n    }\n}\n\ncontract EnergyMarket {\n    Palm public token;\n    address public admin;\n\n    enum Role { BUY_ONLY, SELL_ONLY, PROSUMER }\n\n    struct Household {\n        Role role;\n        uint256 energyGenerated;\n        uint256 energyConsumed;\n        bool exists;\n    }\n\n    mapping(address => Household) public households;\n    address[] public householdList;\n\n    event HouseholdRegistered(address indexed user, Role role);\n    event EnergyReported(address indexed user, uint256 generated, uint256 consumed);\n    event EnergyReset(address indexed user);\n    event EnergyPaid(address indexed buyer, uint256 kwh, uint256 pricePerKwh, uint256 totalCost);\n\n    constructor(address tokenAddress) {\n        token = Palm(tokenAddress);\n        admin = msg.sender;\n    }\n\n    function registerHousehold(address user, Role role) external {\n        require(msg.sender == admin, \"Only admin can register\");\n        require(!households[user].exists, \"Already registered\");\n\n        households[user] = Household(role, 0, 0, true);\n        householdList.push(user);\n\n        emit HouseholdRegistered(user, role);\n    }\n\n    function reportEnergy(uint256 generated, uint256 consumed) external {\n        require(households[msg.sender].exists, \"Not registered\");\n\n        households[msg.sender].energyGenerated = generated;\n        households[msg.sender].energyConsumed = consumed;\n\n        emit EnergyReported(msg.sender, generated, consumed);\n    }\n\n    function resetEnergy() external {\n        require(households[msg.sender].exists, \"Not registered\");\n\n        households[msg.sender].energyGenerated = 0;\n        households[msg.sender].energyConsumed = 0;\n\n        emit EnergyReset(msg.sender);\n    }\n\n    function payEnergy(address buyer, uint256 kwh, uint256 pricePerKwh) external {\n    require(households[buyer].exists, \"Buyer not registered\");\n    require(\n        households[buyer].role == Role.BUY_ONLY ||\n        households[buyer].role == Role.PROSUMER,\n        \"Not allowed to buy\"\n    );\n\n    // 🔹 คำนวณรวมพลังงานที่เหลือขายก่อน\n    uint256 totalSell = 0;\n    for (uint i = 0; i < householdList.length; i++) {\n        Household storage h = households[householdList[i]];\n        if (h.energyGenerated > h.energyConsumed) {\n            totalSell += (h.energyGenerated - h.energyConsumed);\n        }\n    }\n\n    // ❌ ถ้าไม่มีผู้ขาย → ห้ามดึงเงิน\n    require(totalSell > 0, \"No sellers available\");\n\n    // 🔹 ซื้อได้แค่ตามพลังงานที่มีจริง\n    uint256 actualKwh = kwh > totalSell ? totalSell : kwh;\n    uint256 totalCost = actualKwh * pricePerKwh;\n\n    require(token.transferFrom(buyer, address(this), totalCost), \"Payment failed\");\n\n    // 🔹 แจกจ่ายโทเคนตามสัดส่วน\n    for (uint i = 0; i < householdList.length; i++) {\n        Household storage h = households[householdList[i]];\n        if (h.energyGenerated > h.energyConsumed) {\n            uint256 net = h.energyGenerated - h.energyConsumed;\n            uint256 payout = (totalCost * net) / totalSell;\n            token.transfer(householdList[i], payout);\n        }\n    }\n\n    emit EnergyPaid(buyer, actualKwh, pricePerKwh, totalCost);\n}\n\n}\n","sourcePath":"contracts/sol.sol","type":"contract","deployment":{"address":"0x541C11Efd84258cBFfc875C393a6E6D4350A6434","chainid":"17000","blockHeight":4481744}}